{
  "contractName": "ContratoFirma",
  "abi": [
    {
      "anonymous": false,
      "inputs": [
        {
          "indexed": false,
          "internalType": "bytes32",
          "name": "hash",
          "type": "bytes32"
        },
        {
          "indexed": false,
          "internalType": "bytes",
          "name": "clavePublica",
          "type": "bytes"
        },
        {
          "indexed": false,
          "internalType": "uint8",
          "name": "v",
          "type": "uint8"
        },
        {
          "indexed": false,
          "internalType": "bytes32",
          "name": "r",
          "type": "bytes32"
        },
        {
          "indexed": false,
          "internalType": "bytes32",
          "name": "s",
          "type": "bytes32"
        }
      ],
      "name": "FirmaAlmacenada",
      "type": "event"
    },
    {
      "inputs": [
        {
          "internalType": "bytes32",
          "name": "",
          "type": "bytes32"
        }
      ],
      "name": "documentos",
      "outputs": [
        {
          "internalType": "bytes32",
          "name": "hash",
          "type": "bytes32"
        }
      ],
      "stateMutability": "view",
      "type": "function",
      "constant": true
    },
    {
      "inputs": [
        {
          "internalType": "bytes32",
          "name": "hash",
          "type": "bytes32"
        },
        {
          "internalType": "bytes",
          "name": "clavePublica",
          "type": "bytes"
        },
        {
          "internalType": "uint8",
          "name": "v",
          "type": "uint8"
        },
        {
          "internalType": "bytes32",
          "name": "r",
          "type": "bytes32"
        },
        {
          "internalType": "bytes32",
          "name": "s",
          "type": "bytes32"
        }
      ],
      "name": "almacenarFirmaDocumento",
      "outputs": [],
      "stateMutability": "nonpayable",
      "type": "function"
    }
  ],
  "bytecode": "0x608060405234801561001057600080fd5b50610887806100206000396000f3fe608060405234801561001057600080fd5b50600436106100365760003560e01c8063b90c6f671461003b578063ee2a53021461006b575b600080fd5b61005560048036038101906100509190610214565b610087565b6040516100629190610250565b60405180910390f35b610085600480360381019061008091906103ea565b6100a5565b005b60006020528060005260406000206000915090508060000154905081565b7fcac906b8d99bed04900b2cc6a15ac38b06a04fedfb6ae13f6526ac0ec53a546485858585856040516100dc95949392919061050f565b60405180910390a160006040518060a001604052808681526020018560ff16815260200184815260200183815260200142815250905085600080888152602001908152602001600020600001819055506000808781526020019081526020016000206001018190806001815401808255809150506001900390600052602060002090600502016000909190919091506000820151816000019081610180919061077f565b5060208201518160010160006101000a81548160ff021916908360ff1602179055506040820151816002015560608201518160030155608082015181600401555050505050505050565b6000604051905090565b600080fd5b600080fd5b6000819050919050565b6101f1816101de565b81146101fc57600080fd5b50565b60008135905061020e816101e8565b92915050565b60006020828403121561022a576102296101d4565b5b6000610238848285016101ff565b91505092915050565b61024a816101de565b82525050565b60006020820190506102656000830184610241565b92915050565b600080fd5b600080fd5b6000601f19601f8301169050919050565b7f4e487b7100000000000000000000000000000000000000000000000000000000600052604160045260246000fd5b6102be82610275565b810181811067ffffffffffffffff821117156102dd576102dc610286565b5b80604052505050565b60006102f06101ca565b90506102fc82826102b5565b919050565b600067ffffffffffffffff82111561031c5761031b610286565b5b61032582610275565b9050602081019050919050565b82818337600083830152505050565b600061035461034f84610301565b6102e6565b9050828152602081018484840111156103705761036f610270565b5b61037b848285610332565b509392505050565b600082601f8301126103985761039761026b565b5b81356103a8848260208601610341565b91505092915050565b600060ff82169050919050565b6103c7816103b1565b81146103d257600080fd5b50565b6000813590506103e4816103be565b92915050565b600080600080600060a08688031215610406576104056101d4565b5b6000610414888289016101ff565b955050602086013567ffffffffffffffff811115610435576104346101d9565b5b61044188828901610383565b9450506040610452888289016103d5565b9350506060610463888289016101ff565b9250506080610474888289016101ff565b9150509295509295909350565b600081519050919050565b600082825260208201905092915050565b60005b838110156104bb5780820151818401526020810190506104a0565b60008484015250505050565b60006104d282610481565b6104dc818561048c565b93506104ec81856020860161049d565b6104f581610275565b840191505092915050565b610509816103b1565b82525050565b600060a0820190506105246000830188610241565b818103602083015261053681876104c7565b90506105456040830186610500565b6105526060830185610241565b61055f6080830184610241565b9695505050505050565b7f4e487b7100000000000000000000000000000000000000000000000000000000600052602260045260246000fd5b600060028204905060018216806105b057607f821691505b6020821081036105c3576105c2610569565b5b50919050565b60008190508160005260206000209050919050565b60006020601f8301049050919050565b600082821b905092915050565b60006008830261062b7fffffffffffffffffffffffffffffffffffffffffffffffffffffffffffffffff826105ee565b61063586836105ee565b95508019841693508086168417925050509392505050565b6000819050919050565b6000819050919050565b600061067c6106776106728461064d565b610657565b61064d565b9050919050565b6000819050919050565b61069683610661565b6106aa6106a282610683565b8484546105fb565b825550505050565b600090565b6106bf6106b2565b6106ca81848461068d565b505050565b5b818110156106ee576106e36000826106b7565b6001810190506106d0565b5050565b601f82111561073357610704816105c9565b61070d846105de565b8101602085101561071c578190505b610730610728856105de565b8301826106cf565b50505b505050565b600082821c905092915050565b600061075660001984600802610738565b1980831691505092915050565b600061076f8383610745565b9150826002028217905092915050565b61078882610481565b67ffffffffffffffff8111156107a1576107a0610286565b5b6107ab8254610598565b6107b68282856106f2565b600060209050601f8311600181146107e957600084156107d7578287015190505b6107e18582610763565b865550610849565b601f1984166107f7866105c9565b60005b8281101561081f578489015182556001820191506020850194506020810190506107fa565b8683101561083c5784890151610838601f891682610745565b8355505b6001600288020188555050505b50505050505056fea26469706673582212205e54d0949f1d4bd4d0b3687710feeebaed6878c83dbc2a137091ec32a364519264736f6c63430008130033",
  "immutableReferences": {},
  "source": "pragma solidity ^0.8.19;\r\n\r\ncontract ContratoFirma {\r\n    struct Firma {\r\n        bytes clavePublica;\r\n        uint8 v;\r\n        bytes32 r;\r\n        bytes32 s;\r\n        uint256 timestamp;\r\n    }\r\n\r\n    struct Documento {\r\n        bytes32 hash;\r\n        Firma[] firmas;\r\n    }\r\n\r\n    mapping(bytes32 => Documento) public documentos;\r\n\r\n    event FirmaAlmacenada(\r\n        bytes32 hash,\r\n        bytes clavePublica,\r\n        uint8 v,\r\n        bytes32 r,\r\n        bytes32 s\r\n    );\r\n\r\n    // Almacenar la firma del documento\r\n    function almacenarFirmaDocumento(\r\n        bytes32 hash,\r\n        bytes memory clavePublica,\r\n        uint8 v,\r\n        bytes32 r,\r\n        bytes32 s\r\n    ) public {\r\n        // Emitir un evento para rastrear los datos recibidos\r\n        emit FirmaAlmacenada(hash, clavePublica, v, r, s);\r\n\r\n        // Almacenar la firma\r\n        Firma memory nuevaFirma = Firma(clavePublica, v, r, s, block.timestamp);\r\n        documentos[hash].hash = hash;\r\n        documentos[hash].firmas.push(nuevaFirma);\r\n    }\r\n}\r\n",
  "sourcePath": "I:\\contrato_inteligente\\contracts\\ContratoFirma.sol",
  "compiler": {
    "name": "solc",
    "version": "0.8.19+commit.7dd6d404.Emscripten.clang"
  },
  "schemaVersion": "3.4.16",
  "updatedAt": "2024-10-11T00:19:22.044Z",
  "networkType": "ethereum",
  "devdoc": {
    "kind": "dev",
    "methods": {},
    "version": 1
  },
  "userdoc": {
    "kind": "user",
    "methods": {},
    "version": 1
  }
}