{
    "contractName": "ContratoFirma",
    "abi": [
        {
            "anonymous": false,
            "inputs": [
                {
                    "indexed": true,
                    "internalType": "bytes32",
                    "name": "hash",
                    "type": "bytes32"
                },
                {
                    "indexed": true,
                    "internalType": "address",
                    "name": "firmante",
                    "type": "address"
                },
                {
                    "indexed": false,
                    "internalType": "uint8",
                    "name": "v",
                    "type": "uint8"
                },
                {
                    "indexed": false,
                    "internalType": "bytes32",
                    "name": "r",
                    "type": "bytes32"
                },
                {
                    "indexed": false,
                    "internalType": "bytes32",
                    "name": "s",
                    "type": "bytes32"
                },
                {
                    "indexed": false,
                    "internalType": "uint256",
                    "name": "timestamp",
                    "type": "uint256"
                }
            ],
            "name": "FirmaDocumentoRegistrada",
            "type": "event"
        },
        {
            "inputs": [
                {
                    "internalType": "bytes32",
                    "name": "",
                    "type": "bytes32"
                }
            ],
            "name": "documentos",
            "outputs": [
                {
                    "internalType": "bytes32",
                    "name": "hash",
                    "type": "bytes32"
                }
            ],
            "stateMutability": "view",
            "type": "function",
            "constant": true
        },
        {
            "inputs": [
                {
                    "internalType": "bytes32",
                    "name": "hash",
                    "type": "bytes32"
                },
                {
                    "internalType": "address",
                    "name": "firmante",
                    "type": "address"
                },
                {
                    "internalType": "uint8",
                    "name": "v",
                    "type": "uint8"
                },
                {
                    "internalType": "bytes32",
                    "name": "r",
                    "type": "bytes32"
                },
                {
                    "internalType": "bytes32",
                    "name": "s",
                    "type": "bytes32"
                }
            ],
            "name": "almacenarFirmaDocumento",
            "outputs": [],
            "stateMutability": "nonpayable",
            "type": "function"
        }
    ],
    "bytecode": "0x608060405234801561001057600080fd5b5061046e806100206000396000f3fe608060405234801561001057600080fd5b50600436106100365760003560e01c8063b90c6f671461003b578063c9ca871b1461006b575b600080fd5b61005560048036038101906100509190610262565b610087565b604051610062919061029e565b60405180910390f35b61008560048036038101906100809190610350565b6100a5565b005b60006020528060005260406000206000915090508060000154905081565b60006040518060a001604052808673ffffffffffffffffffffffffffffffffffffffff1681526020018560ff168152602001848152602001838152602001428152509050856000808881526020019081526020016000206000018190555060008087815260200190815260200160002060010181908060018154018082558091505060019003906000526020600020906004020160009091909190915060008201518160000160006101000a81548173ffffffffffffffffffffffffffffffffffffffff021916908373ffffffffffffffffffffffffffffffffffffffff16021790555060208201518160000160146101000a81548160ff021916908360ff16021790555060408201518160010155606082015181600201556080820151816003015550508473ffffffffffffffffffffffffffffffffffffffff16867f871035b98232e4da5ba50af4e9fbeaea256df74deecef0a2416f54c26d997f168686864260405161021794939291906103f3565b60405180910390a3505050505050565b600080fd5b6000819050919050565b61023f8161022c565b811461024a57600080fd5b50565b60008135905061025c81610236565b92915050565b60006020828403121561027857610277610227565b5b60006102868482850161024d565b91505092915050565b6102988161022c565b82525050565b60006020820190506102b3600083018461028f565b92915050565b600073ffffffffffffffffffffffffffffffffffffffff82169050919050565b60006102e4826102b9565b9050919050565b6102f4816102d9565b81146102ff57600080fd5b50565b600081359050610311816102eb565b92915050565b600060ff82169050919050565b61032d81610317565b811461033857600080fd5b50565b60008135905061034a81610324565b92915050565b600080600080600060a0868803121561036c5761036b610227565b5b600061037a8882890161024d565b955050602061038b88828901610302565b945050604061039c8882890161033b565b93505060606103ad8882890161024d565b92505060806103be8882890161024d565b9150509295509295909350565b6103d481610317565b82525050565b6000819050919050565b6103ed816103da565b82525050565b600060808201905061040860008301876103cb565b610415602083018661028f565b610422604083018561028f565b61042f60608301846103e4565b9594505050505056fea264697066735822122022191e580a796f939bb31d4ab9e3fc9e664c6892c145629a32694b9798c4027f64736f6c63430008130033",
    "immutableReferences": {},
    "source": "// SPDX-License-Identifier: MIT\r\npragma solidity ^0.8.19;\r\n\r\ncontract ContratoFirma {\r\n    struct Firma {\r\n        address firmante;\r\n        uint8 v;\r\n        bytes32 r;\r\n        bytes32 s;\r\n        uint256 timestamp;\r\n    }\r\n\r\n    struct Documento {\r\n        bytes32 hash;\r\n        Firma[] firmas;\r\n    }\r\n\r\n    mapping(bytes32 => Documento) public documentos;\r\n\r\n    // Evento para registrar firmas de documentos\r\n    event FirmaDocumentoRegistrada(\r\n        bytes32 indexed hash,\r\n        address indexed firmante,\r\n        uint8 v,\r\n        bytes32 r,\r\n        bytes32 s,\r\n        uint256 timestamp\r\n    );\r\n\r\n    // Almacenar la firma del documento\r\n    function almacenarFirmaDocumento(\r\n        bytes32 hash,\r\n        address firmante,\r\n        uint8 v,\r\n        bytes32 r,\r\n        bytes32 s\r\n    ) public {\r\n        Firma memory nuevaFirma = Firma(firmante, v, r, s, block.timestamp);\r\n        documentos[hash].hash = hash;\r\n        documentos[hash].firmas.push(nuevaFirma);\r\n\r\n        // Emitir el evento con los datos de la firma\r\n        emit FirmaDocumentoRegistrada(hash, firmante, v, r, s, block.timestamp);\r\n    }\r\n}\r\n",
    "sourcePath": "I:\\contrato_inteligente\\contracts\\ContratoFirma.sol",
    "compiler": {
        "name": "solc",
        "version": "0.8.19+commit.7dd6d404.Emscripten.clang"
    },
    "schemaVersion": "3.4.16",
    "updatedAt": "2024-10-17T00:55:20.827Z",
    "networkType": "ethereum",
    "devdoc": {
        "kind": "dev",
        "methods": {},
        "version": 1
    },
    "userdoc": {
        "kind": "user",
        "methods": {},
        "version": 1
    }
}